:020000000129D4
:10000600103083120313FD00FD0B072800000800C3
:10001600083083120313FC002330FD00FD0B11286A
:06002600FC0B112808008C
:04002C0000000800C8
:1000300083120313E31B1E2886131F288617631BD6
:100040002328061324280617E31A282886122928AD
:100050008616631A2D2806122E2806165D183228D9
:10006000061533280611861516208611E3193A283D
:1000700086133B28861763193F2806134028061766
:10008000E318442886124528861663184928061264
:100090004A2806165D184E2806154F2806118615A3
:1000A000162086115D1C56280B20572803200800B7
:0E00B000831203135C088A005B0882000800BC
:1000BE00831203135D106208E30018205D1408001C
:1000CE008316031386110611061286120613861363
:1000DE0083128611061186130613861206120B2042
:1000EE000B200B20861606168615162086110B2061
:1000FE008615162086110B208615162086110B20CC
:10010E0006128615162086110B20861516208611CE
:10011E00861286178615162086110B208613061654
:10012E0086151620861106128615162086110B20AE
:10013E0086151620861106168615162086110B209A
:10014E0006128615162086118617061786160616AF
:0C015E008615162086110B205D14080089
:10016A00C728803083120313DE00DA28C030DE008D
:10017A00DA289430DE00DA28D430DE00DA2880303B
:10018A00DE00DA28831203135E08013A0319B6283F
:10019A005E08023A0319BB285E08033A0319BE280F
:1001AA005E08043A0319C128C4285F03F0005E08F8
:1001BA00F0077008DE007008E30018205D10E10106
:1001CA0061086007840000080319F32861086007C2
:1001DA0084000008E2005F20E10AE5285D140800B7
:1001EA0058208A110A128000840ADB0A0319DC0AE1
:0801FA00F003031DF5280800C5
:10020200C22167200130E30018200C30E3001820DF
:100212000130DE000130DF002030E000B520033085
:10022200FB008A30FC005530FD00FD0B1629FC0B4B
:100232001629FB0B1629000000000230DE000130F7
:10024200DF004F30E000B5201F30FB007130FC00B2
:100252001E30FD00FD0B2B29FC0B2B29FB0B2B2940
:1002620000000130E30018200130DE000130DF0021
:100272004530E000B5200630FB001330FC00AD3005
:10028200FD00FD0B4229FC0B4229FB0B4229000019
:1002920000000230DE000130DF003130E000B52026
:1002A2001A30FB005E30FC006E30FD00FD0B57295A
:1002B200FC0B5729FB0B572900000130E3001820E3
:1002C2000130DE000130DF002830E000B5200230CE
:1002D200DE000130DF003B30E000B5201A30FB00C9
:1002E2005E30FC006E30FD00FD0B7529FC0B75299C
:1002F200FB0B752900000130E30018200929802931
:10038400203084003B3083120313F0008630DB00FE
:080394000130DC00F520080037
:10030C00573445344C3443344F344D344534003435
:10031C00463461346334653462346F346F346B3417
:02032C0000349B
:10032E00583478347834783478347834783478347F
:04033E0078340034DB
:10034200583478347834783478345834783478348B
:0403520078340034C7
:1003560049344E345334543441344734523441349E
:040366004D340034DE
:10036A0048346F34FE34673465346C346434693429
:08037A006E3469347A3400345A
:02400E00582137
:00000001FF
